:100000000C942A000C943C000C943C000C943C0092
:100010000C943C000C943C000C943C000C943C0070
:100020000C943C000C943C000C94E0010C943C00BB
:100030000C943C000C943C000C943C000C943C0050
:100040000C943C000C943C000C943C000C943C0040
:100050000C943C0011241FBECFE5D8E0DEBFCDBF1D
:1000600020E0A0E6B0E001C01D92A438B207E1F79D
:100070000E9442010C9408030C9400008830A0F404
:1000800049B321E030E0082E02C0220F331F0A944A
:10009000E2F750E024233523A90102C05595479586
:1000A0008A95E2F7CA01089598EF980F9830B0F456
:1000B00026B3482F50E04850510981E090E0042ECB
:1000C00002C0880F991F0A94E2F730E0822393233D
:1000D00002C0959587954A95E2F7089590EF980F9D
:1000E0009830B0F423B3482F50E04051510981E0DB
:1000F00090E0042E02C0880F991F0A94E2F730E0C6
:100100008223932302C0959587954A95E2F7089537
:1001100098EE980F9830B0F420B3482F50E0485133
:10012000510981E090E0042E02C0880F991F0A94C3
:10013000E2F730E08223932302C0959587954A9594
:10014000E2F708950895613009F043C0883068F4FB
:100150004AB321E030E0B90102C0660F771F8A95EB
:10016000E2F7CB01842B8ABB089598EF980F983063
:1001700068F447B321E030E0B90102C0660F771F91
:100180009A95E2F7CB01842B87BB089590EF980FE7
:10019000983068F444B321E030E0B90102C0660F42
:1001A000771F9A95E2F7CB01842B84BB089598EED4
:1001B000980F983008F054C041B321E030E0B90105
:1001C00002C0660F771F9A95E2F7CB01842B81BBA3
:1001D0000895611145C0883070F44AB321E030E0E1
:1001E000B90102C0660F771F8A95E2F7CB018095AF
:1001F00084238ABB089598EF980F983070F447B322
:1002000021E030E0B90102C0660F771F9A95E2F74E
:10021000CB018095842387BB089590EF980F983089
:1002200070F444B321E030E0B90102C0660F771FDB
:100230009A95E2F7CB018095842384BB089598EECC
:10024000980F983068F441B321E030E0B90102C062
:10025000660F771F9A95E2F7CB018095842381BBC7
:10026000089561E08DE00E94A30061E08EE00E94AD
:10027000A30061E08FE00E94A30060E08AE00E949A
:10028000A3000895CF93DF93CDB7DEB7A0970FB645
:10029000F894DEBF0FBECDBF0E94310183EA91E02A
:1002A0009A83898388EE93E09C838B839E838D83DE
:1002B00081E090E098878F8328EA31E03A872987A8
:1002C00020ED37E03C872B873E872D8722E030E00A
:1002D000388B2F872DEA31E03A8B298B28EB3BE0D6
:1002E0003C8B2B8B3E8B2D8B23E030E0388F2F8B7C
:1002F00021EB31E03A8F298F9C8F8B8F9E8F8D8FD2
:1003000084E090E098A38F8FCE0101960E943D0279
:10031000CE0109960E943D02CE0141960E943D0207
:10032000CE0149960E943D020E94F6020E94FD0203
:1003300080E090E0A0960FB6F894DEBF0FBECDBF70
:10034000DF91CF91089598B380E2892788BB089503
:1003500098B380E4892788BB089588B3805888BB08
:1003600008958AE00E943E00813011F40E94C60286
:1003700008959093630080936200089589B7826026
:1003800089BF83B7806883BF83B78F7B83BF83B701
:10039000886083BF83B78F7D83BF83B78F7E83BF22
:1003A00083B78B7F83BF83B7826083BF83B781604E
:1003B00083BF8CE78CBF12BE8FB780688FBF089554
:1003C0001F920F920FB60F9211242F933F934F93CA
:1003D0005F936F937F938F939F93AF93BF93EF93AD
:1003E000FF93E0916200F09163000995FF91EF9116
:1003F000BF91AF919F918F917F916F915F914F913D
:100400003F912F910F900FBE0F901F90189581E094
:100410008093610008950F931F93CF93DF93809192
:100420006000882329F1C0E0D0E0FE01EE0FFF1F3D
:10043000EE0FFF1FEE0FFF1FEC59FF4F84819581D8
:1004400001979583848384819581892B51F48F0151
:100450000190F081E02D0995F801828193819583C7
:10046000848321968091600090E0C817D907E8F254
:10047000DF91CF911F910F910895FC019091600041
:100480009430B8F4A0916000B0E0AA0FBB1FAA0F8F
:10049000BB1FAA0FBB1FAC59BF4F98E001900D9234
:1004A0009A95E1F7809160008F5F8093600081E012
:1004B000089580E008951F93CF93DF93CDB7DEB703
:1004C00028970FB6F894DEBF0FBECDBF10E04AC02C
:1004D0001F5F80916000181708F044C0212F440F5F
:1004E000551F440F551F440F551F4C595F4FBA01FC
:1004F0006A5F7F4FFB01A081B181822F90E0FC01F8
:10050000EE0FFF1FEE0FFF1FEE0FFF1FEC59FF4F07
:100510000680F781E02DEA17FB07F8F438E0FA01CE
:10052000DE01119601900D923A95E1F7880F991F1F
:10053000880F991F880F991F8C599F4F38E0FC0135
:10054000DA0101900D923A95E1F738E0FE0131961B
:10055000DC0101900D923A95E1F72F5F80916000E8
:10056000281740F2412F50E08091600090E0019701
:10057000481759070CF4ACCF28960FB6F894DEBF95
:100580000FBECDBFDF91CF911F9108958091600084
:1005900090E00197181619061CF5E0E0F0E020E065
:1005A000DF01AA0FBB1FAA0FBB1FAA0FBB1FAC59AD
:1005B000BF4FEE0FFF1FEE0FFF1FEE0FFF1FE4599F
:1005C000FF4F88E001900D928A95E1F72F5FE22FAF
:1005D000F0E08091600090E00197E817F90704F3DC
:1005E0008091600081508093600008950E945B02BA
:1005F00087E092E00E94B90108950E94BE018091B7
:1006000061008130E1F7109261000E940B02F7CF88
:04061000F894FFCF8C
:00000001FF
