S0150000546573745F466173745F50574D2E737265632F
S11300000C942A000C9434000C9434000C943400A6
S11300100C9434000C9434000C9434000C9434008C
S11300200C9434000C9434000C9434000C9434007C
S11300300C9434000C9434000C9434000C9434006C
S11300400C9434000C9434000C9434000C9434005C
S11300500C94340011241FBECFE5D8E0DEBFCDBF21
S11300600E9466010C949B010C940000613009F01D
S113007043C0883068F44BB321E030E0B90102C0DA
S1130080660F771F8A95E2F7CB01842B8BBB08950B
S113009098EF980F983068F448B321E030E0B90144
S11300A002C0660F771F9A95E2F7CB01842B88BBB9
S11300B0089590EF980F983068F445B321E030E04C
S11300C0B90102C0660F771F9A95E2F7CB01842B22
S11300D085BB089598EE980F983008F054C042B349
S11300E021E030E0B90102C0660F771F9A95E2F76C
S11300F0CB01842B82BB0895611145C0883070F414
S11301004BB321E030E0B90102C0660F771F8A9536
S1130110E2F7CB01809584238BBB089598EF980F69
S1130120983070F448B321E030E0B90102C0660FA2
S1130130771F9A95E2F7CB018095842388BB0895B5
S113014090EF980F983070F445B321E030E0B90196
S113015002C0660F771F9A95E2F7CB01809584233E
S113016085BB089598EE980F983068F442B321E067
S113017030E0B90102C0660F771F9A95E2F7CB0110
S11301808095842382BB0895613009F043C0883090
S113019068F44AB321E030E0B90102C0660F771F6A
S11301A08A95E2F7CB01842B8ABB089598EF980FC8
S11301B0983068F447B321E030E0B90102C0660F1B
S11301C0771F9A95E2F7CB01842B87BB089590EFB4
S11301D0980F983068F444B321E030E0B90102C0CC
S11301E0660F771F9A95E2F7CB01842B84BB0895A1
S11301F098EE980F983008F054C041B321E030E0F5
S1130200B90102C0660F771F9A95E2F7CB01842BE0
S113021081BB0895611145C0883070F44AB321E070
S113022030E0B90102C0660F771F8A95E2F7CB016F
S1130230809584238ABB089598EF980F983070F4C2
S113024047B321E030E0B90102C0660F771F9A95E9
S1130250E2F7CB018095842387BB089590EF980F34
S1130260983070F444B321E030E0B90102C0660F65
S1130270771F9A95E2F7CB018095842384BB089578
S113028098EE980F983068F441B321E030E0B9015A
S113029002C0660F771F9A95E2F7CB0180958423FD
S11302A081BB08950E947A0160E08AE10E943600D1
S11302B061E08BE10E9436002FE784E89EE1215043
S11302C080409040E1F700C00000089588EE93E07C
S11302D00E94520180E090E0089561E08AE10E946A
S11302E0C40061E08BE10E94C40061E08CE10E94E3
S11302F0C4000895CF93DF93C82FD92F0E946D01B6
S113030087E087BD80ED86BDDBBDCABD8EB581604B
S11303108EBD8FB582608FBD8EB588608EBD8EB563
S113032080618EBD8FB580618FBD8FB580628FBDBA
S10D0330DF91CF910895F894FFCFF8
S9030000FC
