S01700004763634170706C69636174696F6E342E7372656358
S11300000C942A000C9434000C9434000C943400A6
S11300100C9434000C9434000C9434000C9434008C
S11300200C9434000C9434000C9434000C9434007C
S11300300C9434000C9434000C9434000C9434006C
S11300400C9434000C9434000C9434000C9434005C
S11300500C94340011241FBECFE5D8E0DEBFCDBF21
S11300600E9436000C9445020C94000061E08FE07D
S11300700E94A40161E08EE00E94A40161E08DE091
S11300800E94A40161E08CE00E94A40160E08AE087
S11300900E94A40160E08DE00E94B10060E08EE067
S11300A00E94B10060E08FE00E94B100C0E0D2E0A5
S11300B08AE00E943F01813099F482E390E00E943B
S11300C038028AE00E943F01813051F48AE00E94A4
S11300D03F018130D9F38AE00E943F018823F1F186
S11300E00E943202C130B1F018F0C23029F1E0CFE1
S11300F061E08DE00E94B10060E08EE00E94B100FA
S113010060E08FE00E94B10088EE93E00E94380224
S1130110C1E0CECF61E08EE00E94B10060E08DE0EE
S11301200E94B10060E08FE00E94B10088EE93E08D
S11301300E943802CD2FBCCF61E08FE00E94B10055
S113014060E08EE00E94B10060E08DE00E94B100AA
S113015088EE93E00E943802C0E0AACF0E943202E7
S1130160D9CF613009F043C0883068F44BB321E043
S113017030E0B90102C0660F771F8A95E2F7CB0120
S1130180842B8BBB089598EF980F983068F448B38C
S113019021E030E0B90102C0660F771F9A95E2F7BB
S11301A0CB01842B88BB089590EF980F983068F4A6
S11301B045B321E030E0B90102C0660F771F9A957C
S11301C0E2F7CB01842B85BB089598EE980F983005
S11301D008F054C042B321E030E0B90102C0660F18
S11301E0771F9A95E2F7CB01842B82BB08956111A6
S11301F045C0883070F44BB321E030E0B90102C04F
S1130200660F771F8A95E2F7CB01809584238BBB19
S1130210089598EF980F983070F448B321E030E0D7
S1130220B90102C0660F771F9A95E2F7CB0180955A
S1130230842388BB089590EF980F983070F445B3E9
S113024021E030E0B90102C0660F771F9A95E2F70A
S1130250CB018095842385BB089598EE980F983040
S113026068F442B321E030E0B90102C0660F771FA1
S11302709A95E2F7CB018095842382BB0895883058
S1130280A0F449B321E030E0082E02C0220F331F4E
S11302900A94E2F750E024233523A90102C05595BE
S11302A047958A95E2F7CA01089598EF980F983018
S11302B0B0F426B3482F50E04850510981E090E053
S11302C0042E02C0880F991F0A94E2F730E08223BB
S11302D0932302C0959587954A95E2F7089590EF88
S11302E0980F9830B0F423B3482F50E0405151098F
S11302F081E090E0042E02C0880F991F0A94E2F76F
S113030030E08223932302C0959587954A95E2F7BE
S1130310089598EE980F9830B0F420B3482F50E029
S11303204851510981E090E0042E02C0880F991FC2
S11303300A94E2F730E08223932302C095958795CF
S11303404A95E2F708950895613009F043C0883072
S113035068F44AB321E030E0B90102C0660F771FA8
S11303608A95E2F7CB01842B8ABB089598EF980F06
S1130370983068F447B321E030E0B90102C0660F59
S1130380771F9A95E2F7CB01842B87BB089590EFF2
S1130390980F983068F444B321E030E0B90102C00A
S11303A0660F771F9A95E2F7CB01842B84BB0895DF
S11303B098EE980F983008F054C041B321E030E033
S11303C0B90102C0660F771F9A95E2F7CB01842B1F
S11303D081BB0895611145C0883070F44AB321E0AF
S11303E030E0B90102C0660F771F8A95E2F7CB01AE
S11303F0809584238ABB089598EF980F983070F401
S113040047B321E030E0B90102C0660F771F9A9527
S1130410E2F7CB018095842387BB089590EF980F72
S1130420983070F444B321E030E0B90102C0660FA3
S1130430771F9A95E2F7CB018095842384BB0895B6
S113044098EE980F983068F441B321E030E0B90198
S113045002C0660F771F9A95E2F7CB01809584233B
S113046081BB08958BE883BF8AEF8CBF12BE0895C9
S11304709C01892B49F008B601FEFDCF98B7926024
S111048098BF21503109B9F70895F894FFCFC1
S9030000FC
