:100000000C942A000C943C000C943C000C943C0092
:100010000C943C000C943C000C943C000C943C0070
:100020000C943C000C943C000C945A010C943C0041
:100030000C943C000C943C000C943C000C943C0050
:100040000C943C000C943C000C943C000C943C0040
:100050000C943C0011241FBECFE5D8E0DEBFCDBF1D
:1000600020E0A0E6B0E001C01D92A336B207E1F7A0
:100070000E94E1010C9405020C940000613009F02B
:1000800043C0883068F44BB321E030E0B90102C0CE
:10009000660F771F8A95E2F7CB01842B8BBB0895FF
:1000A00098EF980F983068F448B321E030E0B90138
:1000B00002C0660F771F9A95E2F7CB01842B88BBAD
:1000C000089590EF980F983068F445B321E030E040
:1000D000B90102C0660F771F9A95E2F7CB01842B16
:1000E00085BB089598EE980F983008F054C042B33D
:1000F00021E030E0B90102C0660F771F9A95E2F760
:10010000CB01842B82BB0895611145C0883070F407
:100110004BB321E030E0B90102C0660F771F8A952A
:10012000E2F7CB01809584238BBB089598EF980F5D
:10013000983070F448B321E030E0B90102C0660F96
:10014000771F9A95E2F7CB018095842388BB0895A9
:1001500090EF980F983070F445B321E030E0B9018A
:1001600002C0660F771F9A95E2F7CB018095842332
:1001700085BB089598EE980F983068F442B321E05B
:1001800030E0B90102C0660F771F9A95E2F7CB0104
:100190008095842382BB0895613009F043C0883084
:1001A00068F44AB321E030E0B90102C0660F771F5E
:1001B0008A95E2F7CB01842B8ABB089598EF980FBC
:1001C000983068F447B321E030E0B90102C0660F0F
:1001D000771F9A95E2F7CB01842B87BB089590EFA8
:1001E000980F983068F444B321E030E0B90102C0C0
:1001F000660F771F9A95E2F7CB01842B84BB089595
:1002000098EE980F983008F054C041B321E030E0E8
:10021000B90102C0660F771F9A95E2F7CB01842BD4
:1002200081BB0895611145C0883070F44AB321E064
:1002300030E0B90102C0660F771F8A95E2F7CB0163
:10024000809584238ABB089598EF980F983070F4B6
:1002500047B321E030E0B90102C0660F771F9A95DD
:10026000E2F7CB018095842387BB089590EF980F28
:10027000983070F444B321E030E0B90102C0660F59
:10028000771F9A95E2F7CB018095842384BB08956C
:1002900098EE980F983068F441B321E030E0B9014E
:1002A00002C0660F771F9A95E2F7CB0180958423F1
:1002B00081BB08951F920F920FB60F9211242F93B6
:1002C0008F939F938091600090916100019690932D
:1002D0006100809360008091600090916100883E91
:1002E0009340D1F4109261001092600080916200FE
:1002F000811104C081E0809362000EC08091620091
:10030000813021F482E08093620006C08091620017
:10031000823011F4109262009F918F912F910F9073
:100320000FBE0F901F90189561E08DE00E94CC00E9
:1003300061E08EE00E94CC0061E08FE00E94CC0082
:1003400060E08AE00E94CC0060E08DE00E943E0008
:1003500060E08EE00E943E0060E08FE00E943E0080
:100360000E94E30180916200813089F018F08230B0
:10037000D9F0F8CF61E08DE00E943E0060E08EE0B1
:100380000E943E0060E08FE00E943E00EBCF61E003
:100390008EE00E943E0060E08DE00E943E0060E042
:1003A0008FE00E943E00DECF61E08FE00E943E00C1
:1003B00060E08EE00E943E0060E08DE00E943E0022
:1003C000D1CF0E94940189B7826089BF83B78068CA
:1003D00083BF83B78F7B83BF83B78F7D83BF83B793
:1003E0008F7E83BF83B7886083BF83B78B7F83BFD4
:1003F00083B7826083BF83B7816083BF8CE78CBF84
:0E04000012BE8FB780688FBF0895F894FFCFAB
:00000001FF
