:100000000C942A000C943C000C943C000C94B2011B
:100010000C943C000C943C000C943C000C943C0070
:100020000C943C000C943C000C943C000C943C0060
:100030000C943C000C943C000C943C000C943C0050
:100040000C943C000C943C000C943C000C943C0040
:100050000C943C0011241FBECFE5D8E0DEBFCDBF1D
:1000600020E0A0E6B0E001C01D92A136B207E1F7A2
:100070000E94D4010C94E4010C940000613009F05A
:1000800043C0883068F44BB321E030E0B90102C0CE
:10009000660F771F8A95E2F7CB01842B8BBB0895FF
:1000A00098EF980F983068F448B321E030E0B90138
:1000B00002C0660F771F9A95E2F7CB01842B88BBAD
:1000C000089590EF980F983068F445B321E030E040
:1000D000B90102C0660F771F9A95E2F7CB01842B16
:1000E00085BB089598EE980F983008F054C042B33D
:1000F00021E030E0B90102C0660F771F9A95E2F760
:10010000CB01842B82BB0895611145C0883070F407
:100110004BB321E030E0B90102C0660F771F8A952A
:10012000E2F7CB01809584238BBB089598EF980F5D
:10013000983070F448B321E030E0B90102C0660F96
:10014000771F9A95E2F7CB018095842388BB0895A9
:1001500090EF980F983070F445B321E030E0B9018A
:1001600002C0660F771F9A95E2F7CB018095842332
:1001700085BB089598EE980F983068F442B321E05B
:1001800030E0B90102C0660F771F9A95E2F7CB0104
:100190008095842382BB0895613009F043C0883084
:1001A00068F44AB321E030E0B90102C0660F771F5E
:1001B0008A95E2F7CB01842B8ABB089598EF980FBC
:1001C000983068F447B321E030E0B90102C0660F0F
:1001D000771F9A95E2F7CB01842B87BB089590EFA8
:1001E000980F983068F444B321E030E0B90102C0C0
:1001F000660F771F9A95E2F7CB01842B84BB089595
:1002000098EE980F983008F054C041B321E030E0E8
:10021000B90102C0660F771F9A95E2F7CB01842BD4
:1002200081BB0895611145C0883070F44AB321E064
:1002300030E0B90102C0660F771F8A95E2F7CB0163
:10024000809584238ABB089598EF980F983070F4B6
:1002500047B321E030E0B90102C0660F771F9A95DD
:10026000E2F7CB018095842387BB089590EF980F28
:10027000983070F444B321E030E0B90102C0660F59
:10028000771F9A95E2F7CB018095842384BB08956C
:1002900098EE980F983068F441B321E030E0B9014E
:1002A00002C0660F771F9A95E2F7CB0180958423F1
:1002B00081BB08950E94D60161E08DE00E94CC00D0
:1002C00061E08EE00E94CC0061E08FE00E94CC00F3
:1002D000809160008130D1F018F0823069F1F8CF60
:1002E00061E08DE00E943E0060E08EE00E943E00F2
:1002F00060E08FE00E943E002FE38DE093E021500C
:1003000080409040E1F700C00000E2CF61E08EE065
:100310000E943E0060E08DE00E943E0060E08FE0C1
:100320000E943E002FE38DE093E0215080409040FA
:10033000E1F700C00000CCCF61E08FE00E943E00FA
:1003400060E08EE00E943E0060E08DE00E943E0092
:100350002FE38DE093E0215080409040E1F700C012
:100360000000B6CF1F920F920FB60F9211248F93F9
:1003700080916000811104C081E0809360000EC014
:1003800080916000813021F482E08093600006C09B
:1003900080916000823011F4109260008F910F9074
:1003A0000FBE0F901F9018950E945A0160E08AE0DE
:1003B0000E94CC008BB780628BBF84B7806484BFFF
:0C03C0008FB780688FBF0895F894FFCFBE
:00000001FF
